:020000040000FA
:100000000C9463000C948B000C948B000C94E50111
:100010000C94E5010C94E5010C948B000C948B007E
:100020000C948B000C948B000C948B000C948B0024
:100030000C948B000C948B000C948B000C948B0014
:100040000C949B010C948B000C948B000C948B00F3
:100050000C948B000C948B000C948B000C948B00F4
:100060000C948B000C948B000000000023002600F1
:10007000290000000000240027002A0000000000E2
:10008000250028002B0004040404040404040202D4
:100090000202020203030303030301020408102007
:1000A0004080010204081020010204081020000012
:1000B0000008000201000003040700000000000027
:1000C00000000A04B50411241FBECFEFD8E0DEBF44
:1000D000CDBF11E0A0E0B1E0ECE0FAE002C0059095
:1000E0000D92A634B107D9F721E0A6E4B1E001C032
:1000F0001D92A63BB207E1F710E0C2E6D0E004C0D3
:100100002197FE010E94F304C136D107C9F70E946E
:10011000A9020C94F9040C9400003FB7F894809164
:10012000930190919401A0919501B091960126B50B
:10013000A89B05C02F3F19F00196A11DB11D3FBF1F
:10014000BA2FA92F982F8827BC01CD01620F711DEE
:10015000811D911D42E0660F771F881F991F4A95E8
:10016000D1F70895AF92BF92CF92DF92EF92FF92B4
:100170000F931F93CF93DF936C017B018B01040FCF
:10018000151FEB015E01AE18BF08C017D10759F06B
:100190006991D601ED91FC910190F081E02DC601AD
:1001A0000995892B79F7C501DF91CF911F910F91A7
:1001B000FF90EF90DF90CF90BF90AF900895209187
:1001C0008801309189012817390771F490918601CF
:1001D00080918701981741F0E0918601F0E0EA5B99
:1001E000FE4F808190E008958FEF9FEF089508956E
:1001F000EF92FF920F931F93CF93DF93DC015C96F6
:10020000ED90FC905D97E114F10479F481E090E0C9
:1002100013969C938E93129790E080E0DF91CF919C
:100220001F910F91FF90EF9008955196ED91FC91E1
:10023000529750968C915097982F90950FB75E9645
:100240002C915E97122F127021FD6095F8942081F9
:10025000112319F1282B2083E7012197F1F728E0DA
:10026000462F50E0308160FF1AC0382B3083E70101
:100270002197F1F7BA0175956795215089F71123F8
:1002800081F08081892380830FBF5C968D919C9142
:100290000197F1F781E090E0C1CF2923DCCF39232A
:1002A000E5CF9081892BEFCF209188013091890192
:1002B0002817390761F4809187012091860190E029
:1002C000805C9F4F821B91098F739927089590E05E
:1002D00080E008952091880130918901281739071D
:1002E000B9F49091860180918701981789F0E09187
:1002F0008601F0E0EA5BFE4F80812091860130E0CC
:100300002F5F3F4F2F7333272093860190E008958E
:100310008FEF9FEF089590E080E00895FC01019039
:100320000020E9F73197AF01481B590BBC0187E961
:1003300091E00C94B2001F920F920FB60F9211240D
:100340002F933F938F939F93AF93BF9380918F0190
:1003500090919001A0919101B091920130918E0104
:1003600023E0230F2D3758F50196A11DB11D2093D1
:100370008E0180938F0190939001A0939101B0938F
:1003800092018091930190919401A0919501B09177
:1003900096010196A11DB11D809393019093940144
:1003A000A0939501B0939601BF91AF919F918F91CA
:1003B0003F912F910F900FBE0F901F90189526E838
:1003C000230F0296A11DB11DD2CF1F920F920FB61F
:1003D0000F9211242F933F934F935F936F937F93CB
:1003E0008F939F93AF93BF93EF93FF93E091880117
:1003F000F0918901309749F0A685B7858585968D5E
:1004000091FF14C09C918923A1F4FF91EF91BF91BA
:10041000AF919F918F917F916F915F914F913F919C
:100420002F910F900FBE0F901F9018959C918923CC
:1004300061F7A389B4899C918589809589238C93E0
:10044000868997890197F1F7608D718DA685B785AB
:10045000558538E020E0CB010197F1F7822F90E03D
:1004600095958795282F4C91452309F020683150A8
:1004700091F7868D81FD20958091870190E001960E
:100480008F73992730918601381799F0A0918701D1
:10049000B0E0AA5BBE4F2C9380938701828D938D31
:1004A0000197F1F7A389B4898C919589892B8C9355
:1004B000ACCF868D8160868FF1CF90E0FC01E25554
:1004C000FF4F2491FC01E656FF4F3491FC01EA579F
:1004D000FF4FE491EE23C9F0222339F0233001F1DC
:1004E000A8F4213019F1223029F1F0E0EE0FFF1FBE
:1004F000E458FF4FA591B4918FB7F894EC91611136
:1005000026C030953E233C938FBF08952730A9F035
:100510002830C9F0243049F7809180008F7D03C0D6
:10052000809180008F7780938000DFCF84B58F77B4
:1005300084BDDBCF84B58F7DFBCF8091B0008F77FA
:100540008093B000D2CF8091B0008F7DF9CF3E2B49
:10055000DACFCF93DF93CDB7DEB7A1970FB6F8947C
:10056000DEBF0FBECDBF789484B5826084BD84B5F4
:10057000816084BD85B5826085BD85B5816085BD9E
:1005800080916E00816080936E0010928100809156
:1005900081008260809381008091810081608093DE
:1005A0008100809180008160809380008091B10003
:1005B00084608093B1008091B00081608093B0002E
:1005C00080917A00846080937A0080917A008260C2
:1005D00080937A0080917A00816080937A00809184
:1005E0007A00806880937A001092C1001092B20164
:1005F0001092B1011092B0011092AF011092AE01B1
:100600001092AD018DE991E09093B4018093B30114
:100610009091A301963108F047C02DEB30E0309364
:10062000AE012093AD012BE931E03093B00120936E
:10063000AF012CE231E03093B2012093B10120915F
:10064000680084E0983048F031E09E3008F430E0F3
:1006500081E001C0880F3A95EAF7822B8093680009
:100660002DE630E0983050F02BE630E09E3030F050
:100670002CE630E0963110F030E020E03093AB0112
:100680002093AA01292F30E0983008F0B6C081E00D
:1006900001C0880F9A95EAF78093AC018091B3016D
:1006A0009091B4010197F1F78091B1019091B2015D
:1006B000892B49F1E0918801F091890121E0E73926
:1006C000F20709F1309739F0A389B4899C918589A3
:1006D000809589238C938091B5018E7F8093B5019D
:1006E000109287011092860187E991E09093890129
:1006F00080938801E091AA01F091AB0180819091F3
:10070000AC01892B808382E191E00E948E018EE111
:1007100091E00E948E0181E291E00E948E018EE1C3
:1007200091E00E948E019AE0892E912CA12CB12C8F
:1007300020E0222E20E0322E8BE391E00E948E01F9
:1007400020918A0130918B0140918C0150918D0153
:10075000DA01C9010196A11DB11D80938A01909310
:100760008B01A0938C01B0938D0119A28E010F5DB6
:100770001F4FCA01B901A50194010E94D104605D17
:10078000F80162938F01211531054105510589F763
:10079000309719F0CF010E948E018EE191E00E9406
:1007A0008E010E948D006B017C0188EE482E83E053
:1007B000582E612C712C0E948D006C197D098E09B8
:1007C0009F09683E734081059105A8F3F1E04F1A37
:1007D00051086108710828EEC20E23E0D21EE11C08
:1007E000F11C411451046104710429F721143104EE
:1007F00009F4A2CF0E9400009FCF9E3040F4285001
:10080000310981E001C0880F2A95EAF745CF2E50C3
:100810003109F7CF0F931F93CF93DF9310929A0173
:100820001092990188EE93E0A0E0B0E080939B01E4
:1008300090939C01A0939D01B0939E0184E091E070
:1008400090939801809397011092AE011092AD01A0
:100850001092B0011092AF011092B2011092B1014A
:100860001092B4011092B3016091B5016E7F6D7F5B
:100870006093B5016695617081E068278BE00E9406
:100880005D0245EA50E0FA01649181E990E0FC01E3
:100890002491222399F030E0220F331FF901EE5802
:1008A000FF4FA591B491F901E458FF4F2591349180
:1008B0002FB7F8943C91632B6C932FBFFA014491AE
:1008C0004093A701FC018491E82FF0E0EE0FFF1F99
:1008D000E458FF4F859194919093A9018093A801CA
:1008E00006EA10E0F8012491C2E9D0E0FE0184910B
:1008F0008823C9F090E0880F991FFC01EE58FF4F44
:10090000A591B491FC01E458FF4F459154913FB734
:10091000F8949C91822F809598239C93FA01908162
:10092000892380833FBF8091B50181FD04C061E0D0
:100930008CE00E945D028CE08093A301F801049199
:100940000093A401FE01C491EC2FF0E0EE0FFF1F15
:10095000E859FF4F859194919093A6018093A5014A
:10096000DF91CF911F910F91089584E091E09093D2
:10097000980180939701809188019091890187590E
:10098000914071F4E091AA01F091AB0190818091C6
:10099000AC0180958923808310928901109288018F
:1009A0000895A1E21A2EAA1BBB1BFD010DC0AA1FB0
:1009B000BB1FEE1FFF1FA217B307E407F50720F0C8
:1009C000A21BB30BE40BF50B661F771F881F991F43
:1009D0001A9469F760957095809590959B01AC018C
:1009E000BD01CF010895EE0FFF1F0590F491E02D9A
:1009F000099410E0C2E6D0E004C0FE010E94F304B6
:100A00002196C336D107C9F7F894FFCF0000000044
:100A1000F800B2008B01F70054016A01DF00486161
:100A20006C6C6F2057656C7421000D0A0041546D89
:100A30006567613332385020697374206765737459
:100A400061727465742E005A6165686C65723A2033
:020A50000000A4
:107E0000112484B714BE81FFF0D085E080938100F7
:107E100082E08093C00088E18093C10086E0809377
:107E2000C20080E18093C4008EE0C9D0259A86E02C
:107E300020E33CEF91E0309385002093840096BBD3
:107E4000B09BFECF1D9AA8958150A9F7CC24DD24C4
:107E500088248394B5E0AB2EA1E19A2EF3E0BF2EE7
:107E6000A2D0813461F49FD0082FAFD0023811F036
:107E7000013811F484E001C083E08DD089C08234E0
:107E800011F484E103C0853419F485E0A6D080C0E4
:107E9000853579F488D0E82EFF2485D0082F10E0AE
:107EA000102F00270E291F29000F111F8ED06801E7
:107EB0006FC0863521F484E090D080E0DECF843638
:107EC00009F040C070D06FD0082F6DD080E0C81688
:107ED00080E7D80618F4F601B7BEE895C0E0D1E017
:107EE00062D089930C17E1F7F0E0CF16F0E7DF06D8
:107EF00018F0F601B7BEE89568D007B600FCFDCFD4
:107F0000A601A0E0B1E02C9130E011968C91119780
:107F100090E0982F8827822B932B1296FA010C0160
:107F200087BEE89511244E5F5F4FF1E0A038BF0790
:107F300051F7F601A7BEE89507B600FCFDCF97BE46
:107F4000E89526C08437B1F42ED02DD0F82E2BD052
:107F50003CD0F601EF2C8F010F5F1F4F84911BD097
:107F6000EA94F801C1F70894C11CD11CFA94CF0C13
:107F7000D11C0EC0853739F428D08EE10CD085E9AC
:107F80000AD08FE07ACF813511F488E018D01DD067
:107F900080E101D065CF982F8091C00085FFFCCF94
:107FA0009093C60008958091C00087FFFCCF809118
:107FB000C00084FD01C0A8958091C6000895E0E648
:107FC000F0E098E1908380830895EDDF803219F02E
:107FD00088E0F5DFFFCF84E1DECF1F93182FE3DFCA
:107FE0001150E9F7F2DF1F91089580E0E8DFEE27F6
:047FF000FF270994CA
:027FFE00040479
:00000001FF
