:100000000C9434000C9449000C9449000C94490061
:100010000C9449000C9449000C9449000C9449003C
:100020000C9449000C9449000C9449000C9449002C
:100030000C9449000C9449000C9449000C9449001C
:100040000C9449000C9449000C9449000C9449000C
:100050000C9449000C9449000C9449000C944900FC
:100060000C9449000C94490011241FBECFEFD8E036
:10007000DEBFCDBF11E0A0E0B1E0E0E0F2E002C001
:1000800005900D92A834B107D9F70E9476000C9420
:10009000FE000C9400002FB7F8942B98E0EAF1E0F2
:1000A0003197F1F700C098E080FF11C02B9AE0EA89
:1000B000F1E03197F1F700C086959150A9F72B9A9E
:1000C00080EA91E00197F1F700C02FBF08952B98C7
:1000D000EECFCF93DF93EC018881811103C0DF91D4
:1000E000CF91089521960E944B00F6CFCDB7DEB791
:1000F0002B970FB6F894DEBF0FBECDBF239A2B9A75
:100100002FEF83EC99E0215080409040E1F700C050
:1001100000008AE391E00E94690080E091E00E9483
:1001200069008DE191E00E946900E12CF12C6701EA
:100130008DE391E00E94690056018701912CC11462
:10014000D104E104F104B1F480E30E944B008AE39E
:1001500091E00E9469002FEFC21AD20AE20AF20A65
:100160008FEF93ED20E3815090402040E1F700C0F5
:100170000000DECFB501C8012AE030E040E050E0E9
:100180000E94DC00FE013196E90DF11D9394605D43
:100190006083C501D80159018A010A97A105B105FB
:1001A00048F79114A1F29A94FE013196E90DF11DE0
:1001B00080810E944B00F5CFA1E21A2EAA1BBB1B27
:1001C000FD010DC0AA1FBB1FEE1FFF1FA217B30723
:1001D000E407F50720F0A21BB30BE40BF50B661F39
:1001E000771F881F991F1A9469F7609570958095FD
:1001F00090959B01AC01BD01CF010895F894FFCF0C
:100200004D69646E696768742D576F726B657220F3
:1002100041546D656761333238500D0A0042617296
:10022000652D4D6574616C206176722D6763632066
:10023000676573746172746574210D0A005A616593
:08024000686C65723A200000B1
:00000001FF
