:100000000C9434000C9449000C9449000C94490061
:100010000C9449000C9449000C9449000C9449003C
:100020000C9449000C9449000C9449000C9449002C
:100030000C9449000C9449000C9449000C9449001C
:100040000C9449000C9449000C9449000C9449000C
:100050000C9449000C9449000C9449000C944900FC
:100060000C9449000C94490011241FBECFEFD8E036
:10007000DEBFCDBF11E0A0E0B1E0EEE3F2E002C0F0
:1000800005900D92AC31B107D9F70E9411010C9483
:100090001D010C9400005E9A85E08A95F1F700003E
:1000A0005E9887EC90E00197F1F700C0000008959A
:1000B0009BB1937C9BB980FD5D9A81FD5C9A82FD2A
:1000C0005B9A83FD5A9A0C944B00CF93C82F61150D
:1000D00059F05F9A8C2F82958F700E9458008C2F58
:1000E0008F70CF910C9458005F98F4CFCF93DF932B
:1000F0000F92CDB7DEB7898360E00E9465008981E9
:100100008150823030F48FE39FE10197F1F700C016
:1001100000000F90DF91CF91089561E00C9465008D
:10012000CF93DF93EC018881811103C0DF91CF91E0
:10013000089521960E948D00F6CF81E00C94760000
:10014000CF93DF9300D000D0CDB7DEB72091000170
:1001500030910101409102015091030129833A83BA
:100160004B835C83643008F063E0FE01E60FF11D11
:100170009181890F80680F900F900F900F90DF9101
:10018000CF910C9476008AB18C6F8AB98BB18F7342
:100190008BB92FEF80E792E0215080409040E1F74B
:1001A00000C0000083E00E9458008FE19EE40197A8
:1001B000F1F700C0000083E00E94580087E592E05C
:1001C0000197F1F700C0000083E00E94580082E030
:1001D0000E94580088E20E9476008CE00E9476001F
:1001E00086E00E9476000C949D000E94C30060E0AF
:1001F00080E00E94A00084E091E00E94900061E015
:1002000080E00E94A00080E191E00C9490002FEF2C
:1002100083ED90E3215080409040E1F700C0000062
:1002200008950E94F5002FEF83ED90E32150804068
:0E0230009040E1F700C00000F6CFF894FFCF39
:10023E000040145448616C6C6F2057656C7421003B
:0C024E0041546D65676133323850000088
:00000001FF
